:10400000FC7F002091050100D57B0000ED7B0000C6
:1040100000000000000000000000000000000000A0
:104020000000000000000000000000007905010011
:10403000000000000000000079050100E505010016
:104040007905010079050100790501007905010074
:104050007905010079050100017700007D05010067
:1040600079050100C5040100790501007905010009
:104070007905010079050100D504010079050100E9
:104080007905010079050100790501007905010034
:104090006DFC00007905010079050100790501003A
:1040A0007905010079050100790501007905010014
:1040B0000000000010B5064C2378002B07D1054BFB
:1040C000002B02D0044800E000BF0123237010BD84
:1040D000D00500200000000008C70100044B10B507
:1040E000002B03D00349044800E000BF10BDC046C8
:1040F00000000000D405002008C7010030B50725E6
:10410000104C80002268D3172B400F4D9B1840594C
:10411000DB10C31818785B780002C0180B4B1340F3
:1041200004D50825013B6D422B4301331025EB1AC2
:104130005B1A184101238B40013B52181840C0B252
:10414000226030BDF40500204C00002007000080F4
:10415000F8B51F4B05001F68142138000EF016FD3E
:10416000FF2631400C00380014210EF029FC0E23EC
:104170000640E81F174F634306281DD80EF082FB48
:104180000C1410181C040800AA22FB189A55F8BD3C
:10419000E822FB189A55FAE72722FB189A55F6E70A
:1041A0002922FB189A55F2E76822FB189A55EEE788
:1041B0006A22FB189A55EAE72022FF182A43BA55CB
:1041C0000B2DE4D1044B1C60044B1E60DFE7C0469E
:1041D00008120020F0100020000600200406002035
:1041E000F0B5040085B0364805F0F1FC0722354BE8
:1041F0001A70354B1A7800239A4200D00933334A9B
:1042000008211370324B334A20001A600023324ACF
:104210001370324A1370324A1370324A1360324AB2
:104220001360FFF76BFF314B18702F4D2B681A008E
:104230001823FF339A4241DC01212000FFF75EFF83
:10424000002831D006212000FFF758FF03210390FA
:104250002000FFF753FF0330C3B202930023019302
:10426000214E019B029A35689342DED21823FF3318
:104270009D4214DC039B1421ED1A28000EF086FCED
:1042800028000F0014210EF09BFB0E235F43184BF8
:10429000DF19385CFFF75CFF336801333360019B43
:1042A0000133DBB20193DBE704212000FFF726FF97
:1042B000FFF74EFF2B6801332B60B6E705B0F0BD6A
:1042C0004017002028120020140600200C120020A5
:1042D0003400002088130000F8050020F9050020B4
:1042E00009060020F4050020081200200A0600201C
:1042F000F0100020F8B5104B09241B78002B00D1DA
:104300000E3400250A27A4B20C4E2100300009F01B
:1043100065FB0B4BAA00D0503B006B43094AE11DE3
:10432000D21889B20A2330000134013509F088FB24
:10433000A4B2072DE8D1F8BD1406002064170020B0
:1043400018060020AF020020F8B5334C00212000F1
:1043500009F044FB431E9841304B012118702000A6
:1043600009F03CFB2E4F02213870200009F036FB8B
:104370002C4D03212870200009F030FB2A4E042127
:104380003070200009F02AFB284B0521187020000E
:1043900009F024FB264B06211870200009F01EFBB3
:1043A000244B07211870200009F018FB224B08212C
:1043B0001860200009F012FB204B2A783978186029
:1043C000131C8A4200D20B1C3278184E2B703578A1
:1043D000DCB22B1C954200D2131CDDB233700F4BA4
:1043E0001B78002B00D10A0015490A70002B00D160
:1043F0002500144A1570002B0AD00E4A1278124973
:104400000A70002B01D10C4B1868104B1860F8BDD6
:10441000074A1278F3E7C04664170020140600200C
:10442000FA050020D4060020FB050020D506002058
:10443000AD020020AE020020DC060020E0060020D5
:10444000FC050020D6060020AC020020D806002083
:1044500010B5FFF779FF024B1878FFF7C1FE10BDCA
:10446000FC050020F8B5284B284F1A78284B294E18
:104470001C78294B294D1878294B1978294B1B6832
:10448000002A38D1307028483C70017027490B60F1
:10449000274C0021200009F033FB3A78012120004D
:1044A00009F02EFB32780221200009F029FB2A783E
:1044B0000321200009F024FB1E4B04211A78200060
:1044C00009F01EFB184B05211A78200009F018FB93
:1044D000194B06211A78200009F012FB134B072113
:1044E0001A68200009F00CFB144B08211A68200000
:1044F00009F006FBF8BD2C700E4C20700E480170C0
:104500000E490B60C4E7C04614060020FA050020DF
:10451000FC050020D4060020D6060020FB05002064
:10452000AC020020D8060020AD020020DC060020EE
:1045300064170020D5060020AE020020E00600200F
:10454000002314210A4A10B513600A4A13700A4A5C
:1045500011700A4A13700A4A13700A4A13700A4A01
:1045600013700A4A13700A4A1370FFF77BFF10BDDD
:10457000D8060020FC050020AC020020D406002054
:10458000FA050020D5060020FB050020470000208A
:104590000806002070B518490B78942B21D8174ACB
:1045A00017481478174A002C21D10478013404707C
:1045B000154C05782678301CAE4200D2281C20709D
:1045C0001248147805782A1CA54200D2221C0270D9
:1045D0000F4801330278DBB20B70934201D90132EC
:1045E00002700878FFF7FCFDFFF73CFF70BD147800
:1045F00001341470DCE7C046FC05002014060020DE
:10460000FA050020FB050020D4060020D506002076
:10461000D60600200023F0B589B003936B461F7BBC
:10462000039B354E9D00354BAA591B689A425BDAB5
:104630000524BC4212D3FF2C10D0A300601CF258FA
:104640008300F2500A23584301002D4B0A395918B0
:104650001818013C10F0CEFEE4B2EAE70A24039BEE
:10466000274F5C43162302AA0A379B183F193900CB
:10467000180010F0BFFE224B2248E418210002F07F
:10468000C3FA162302AA9B181900380010F0B2FED4
:104690000323220000931C4906331C4808F070FADB
:1046A000164B09241A68725100221A60FFF7DAFECD
:1046B000174B1B78002B00D10E340025A4B2154FE8
:1046C000AB00F2582100380009F01AFA0A226A43B6
:1046D0000B4BE11DD21889B238000134013509F0C5
:1046E000D1FAA4B2072DEAD1039B01330393072B20
:1046F00094D109B0F0BDC04618060020D8060020AD
:10470000AF020020D416002030B00100FE170020B8
:104710001406002064170020431E112B09D84B1EDD
:104720000B2B06D80E2343430248C01820231A43FC
:1047300042547047F01000200E220B4BF0B59C46FF
:1047400030270A4E0A4D34682B6854436444E754BA
:104750003368C01842432B683060C91813000B221D
:10476000634429605A54F0BDF01000200006002078
:104770000406002010B5002937D11C4C0822023154
:10478000200003F0AFFA002813D0194B1A68194B18
:10479000023218680E235A43174B9B18195C0029E4
:1047A00007D122221A540120FFF7C6FF0122134B22
:1047B0001A7008220121200003F094FA002814D076
:1047C0000B4B1A680B4B023A18680E235A430A4BDC
:1047D0009B18195C002908D122221A54012040425A
:1047E000FFF7AAFF0122054B1A7010BDD416002056
:1047F0000006002004060020F0100020EA06002039
:10480000FF220C4B10B519680B4B11401B6813406D
:10481000F13A5143094A52182C21D1540123084A34
:104820001370084A1370084A1378013B1370FFF79E
:1048300019FE10BD0006002004060020F010002024
:1048400008060020E9060020AC02002070B5050033
:10485000D01F0C00012303281BD8164E0D330EF079
:1048600011F81A0B02216B43013CF3181B5D0B2B53
:1048700008D1FFF7C5FF05E0013D6B43F3185B5C12
:104880000B2BF6D00E235D437619335D584243411E
:10489000DBB2180070BD6B430134F3181B5D0B2BAA
:1048A000F0D1E6E701356B43F3185B5C0B2BE9D1E4
:1048B000DFE7C046F0100020F8B505000E20030029
:1048C0000E006B433D493F22CB189C5D2700974368
:1048D000303A1440402F3AD004D8002F29D0E419A0
:1048E000E0B2F8BD802F44D0C02FF8D1013CE4B233
:1048F000062C00D80A24220031002800FFF7A6FF6A
:104900000028ECD10234E4B20A2C00D9072422009A
:1049100031002800FFF79AFF0028E0D10134E4B20B
:104920000B2C00D1043C220031002800FFF78EFF41
:10493000D5E79E19072C05D1013E33781342CED11D
:104940000234CCE773781342C9D10724C7E70A2C95
:1049500007D1013D684309188B5D1342BFD1023C6A
:10496000BDE70135684309188B5D1342B7D10A24AE
:10497000B5E70134E4B20A2C00D907242200310043
:104980002800FFF763FF0028A9D1023CE4B2062CFF
:1049900000D80A24220031002800FFF757FF002822
:1049A0009DD1013CE4B2062C00D104342200310038
:1049B0002800FFF74BFF002898D090E7F010002068
:1049C000F8B5294B0600FC33986B284B0C001B787C
:1049D00017000421002B00D149180DF0EDFF00292C
:1049E00030D10E200500224B20229C4675436544A1
:1049F0002B5D134226D1072F0CD1601C295C083790
:104A000039400ED00B291BD021003000FFF754FF96
:104A1000285517E0092F08D1601E295C0637394058
:104A2000F0D113432B542A550CE0082F0BD1711EE3
:104A300041436144085D0737384010D00B28E3D16B
:104A4000FFF7DEFEF8BD0A2FFCD1711C41430F2099
:104A500061440F5D074002D00B2FF1D0D4E7134320
:104A60000B552A55EEE7C046D41600201406002048
:104A7000F01000200200F8B52C4E2D4B3078D4B247
:104A8000CDB21870EF1C6300DB19DBB233709842B3
:104A900002D00020274B18700420274B1870274B9A
:104AA0001868274B10181E680E235843254B1B18F7
:104AB0005B18985D10239843062833D80DF0E2FE6A
:104AC000040A0B04100A1F001000FFF735FE012234
:104AD0001D4B1A70F8BD29002000FFF74BFEF9E7C7
:104AE0001000FFF729FE194A1378013313700122D1
:104AF000174B1A70174A136803331360EAE7164B13
:104B00001878124B1B789842E4D81000FFF714FE77
:104B100001220F4B1A700F4A136864331360FFF7BA
:104B200039FDD7E7FFF76CFED4E7C046460000200A
:104B3000480000200B06002010070020000600207F
:104B400004060020F0100020EA06002009060020DC
:104B5000E8060020D80600200A060020F0B5C3B2FF
:104B600087B00C0010006249170000930DF028FF79
:104B70000026402501905E4930000DF021FF002302
:104B80005C4A8018019A9A4204DB6A461278C25441
:104B90000133F7E7013DF619002DECD1019800280B
:104BA00001DA012040424025431C0293E4B2BE01D9
:104BB0004F4930000DF004FF00234E4A8018019A3F
:104BC0009A4202DBC4540133F9E7013DF619002D86
:104BD000EED17F20009B46491C19E3B27843059330
:104BE0000DF0EEFE029B4449C018444B013818609A
:104BF00038000DF0E5FEFF24009B01900393802315
:104C00005B009C4224DC122C23D1681E78433A4975
:104C10000DF0D6FE40250024029BC018374B01380A
:104C200058603E00664303940294334930000DF00F
:104C3000C7FE00238446019A9A423CDB62466846DE
:104C40002F49D218521800782A4901338854F2E7C4
:104C500001243B0000266B430493A6421EDA26493A
:104C600004980DF0ADFE00238446019A9A4209DBB8
:104C7000624668462349D2185218007B1D49013309
:104C80008854F2E70198002801DA01204042431CD1
:104C90000293049B0136DB190493DEE7E343DB1741
:104CA0002340039AED18059B01349B1ADBB2039352
:104CB000A5E70294B9E7039B0134F619E31AAB4266
:104CC000F7DB059B009A013D981AC3B20093002DB3
:104CD000A7D10298084978430DF072FE019B002B82
:104CE00001DA01235B42054AC318936007B0F0BDA7
:104CF000B41A0000110700203FAB0100E4100020AF
:104D00008C06000046030000F8B5174C200002F0A6
:104D10007FF91649164804F089FF2000242101F08C
:104D2000E0F8144AFF210020FFF718FF124E134D40
:104D3000134C3278290020000CF09EF80123114F0B
:104D40003B70FFF701FBFFF78DFB00233B70FFF784
:104D5000FBFAFFF787FB3278290020000CF08CF873
:104D6000FFF776FBF8BDC046D4160020DC6F0100CB
:104D7000E416002044AC0000AC0200205AB0010050
:104D80002824002014060020F8B5444E4449300081
:104D900005F082FE434C444D2200290030000FF004
:104DA000F5FC424E4249300005F076FE2200290013
:104DB00030000FF0EBFC3F4E3F49300005F06CFE39
:104DC0002200290030000FF0E1FC3C4E3C4930004D
:104DD00005F062FE2200290030000FF0D7FC394EAA
:104DE0003949300005F058FE2200290030000FF04C
:104DF000CDFC364D280004F0EFFE354B186028003E
:104E000004F0FCFE334E344B344F186031680A22F4
:104E100038000DF087FB324D2200290038000FF0DA
:104E2000B5FC304F304B0A22196838000DF07AFB80
:104E30002900220038000FF0A9FC2C4B2C4F1978C8
:104E40000A2238000DF05DFB2900220038000FF027
:104E50009DFC284B284F19780A22013138000DF0AB
:104E600061FB2900220038000FF090FC234B244FF7
:104E700019780A2238000DF044FB2900220038007E
:104E80000FF084FC1F4F316838000A220DF04AFBF6
:104E90002900380022000FF079FCF8BD44060020FC
:104EA000DF6B01000000002051A500008C060020EF
:104EB000B86B010068060020066C0100B0060020F7
:104EC0005D6C0100EC0600205C8B0100E416002004
:104ED00010060020D80600200C06002044120020F6
:104EE00035240100101200203400002009060020A3
:104EF0001C120020FC05002038120020AC0200200B
:104F00002C12002034060020F0B5D34A8BB0137861
:104F1000062B00D8BDE00023137000250027CF4AE0
:104F20002B011268CE4C9B1A02932C19CD4B0E26E6
:104F30001968CB487B1A03930F2321781940CA4B79
:104F40001A78CA4B564380196E461B78C05C019094
:104F50003679C7480670042900D09DE0BE4B197809
:104F6000242349080D312370039B11331BDBC14BF4
:104F7000039A1B68934216DD029B002B13DDBE4B88
:104F8000029A1B6893420EDDBC4E89B2300005F0D8
:104F900083FC6B4608229A5E6B46B9480C21595E29
:104FA000330005F0D5FE2022237810379343237079
:104FB000A0230E345B009F42B8D101350E2DADD138
:104FC000B04BFC339C6B03231C4017D1AE4FAF4E4C
:104FD0003D78002D00D1E3E0AD4A23009268AD4951
:104FE000AD480AF08BFDAD4B22002100AC4805F026
:104FF000AFFE0023AB4A3B7033701370AA4A13789C
:10500000002B02D10320A94908709D4C013B0221CD
:105010002000137004F0DCF90021200004F02EFDC4
:105020000023A34AA34D13802B80A34EA34B3278B9
:105030001978200004F0DCFCA14B0A22197807A89B
:1050400001310DF06FFA07A99E480DF0B7FA07A8D5
:105050000DF0F0F99B4FBB68012B00D9C7E09A49CE
:1050600004A80DF02FFA390004A80DF0C8FA9749EA
:105070000DF0D2FA010007A80DF096FA07A9380042
:105080000DF09CFA07A80DF0D5F904A80DF0D2F99F
:10509000E0E70133137040E70B2900D064E72B20D1
:1050A0002070824800780138042800D95CE7884ED7
:1050B0000DF0E8FB03101C5F6A0000228548327087
:1050C0000378854E59080133DBB2715C0B2B0BD88A
:1050D000037049E700227F48327003789908013352
:1050E000DBB21531072BF3D902703DE70132D2B2A2
:1050F0005D48142A01D8027007E000220133DBB2B8
:1051000002705A480E2BF6D80370714A1378002BA0
:1051100013D1019B022B05D1013B13701E226F4B53
:105120001A7021E7019B042B01D017211CE70123F2
:1051300013702022694B1A7016E769490B78013306
:10514000DBB20B706549052B04D908781E2801D104
:105150000130087009780B2B00D805E70023604860
:10516000137003702029E0D101224E4B09391A70C7
:10517000FAE6002257483270037899080133DBB20F
:105180001831072BB0D8A3E70022524832700378B9
:10519000544E59080133DBB2715C0B2BA4D897E74E
:1051A0003378002B0DD03A4A2B0052684E493A48CA
:1051B0000AF0A4FC4D4B2A002900394805F0C8FD2F
:1051C00017E7384A1178002906D0314A4849126851
:1051D00031480AF093FC0CE7464B1B78002B00D1BA
:1051E00007E7454B0A002E4805F0B2FD01E73900FC
:1051F00020000BF01EFE14232B80304B32781978E0
:10520000200004F0F5FB3D4B0A22197807A80DF0A9
:1052100078F907A93A480DF0D1F907A80DF00AF975
:10522000374FBB68012B6DD8274904A80DF04AF908
:10523000390004A80DF0E3F9010007A80DF0B4F956
:1052400007A938000DF0BAF907A80DF0F3F804A883
:105250000DF0F0F8E4E7C04638000020F00500202B
:10526000F0100020EC050020501200205112002008
:1052700040060020100600200C060020EC0600204E
:10528000E4160020D4160020E8060020E9060020DD
:10529000E41000209D0D0020081700204406002087
:1052A00040170020EA0600201007002046000020DA
:1052B000481A0020461A00200C1200202812002054
:1052C000FC05002038120020B86A0100BB6A01000A
:1052D000390000200B0600203A0000204106002083
:1052E0004206002040000020570A00208C060020C3
:1052F0001107002008060020B0060020AC020020A4
:105300002C120020390020000BF093FD2223714F56
:1053100008213A7820002B8004F06AFB6E492000B7
:105320000BF083FD2E232B806C4B3A7819782000EC
:1053300004F05EFB6A4B0A22196807A80DF0F2F828
:1053400007A968480DF03AF907A80DF073F8654F02
:10535000BB68032B16D8644904A80DF0B3F83900D4
:1053600004A80DF04CF9010007A80DF01DF907A9DC
:1053700038000DF023F907A80DF05CF804A80DF033
:1053800059F8E4E7594B0F21FC33986B0DF014FBEF
:10539000574B002908D15248564A0068904203DC16
:1053A0001A78002A31D019701B78002B30D052495E
:1053B00020000BF045FD52232B80504B0A22197818
:1053C00007A80DF09EF807A94D480DF0F7F807A8BB
:1053D0000DF030F84A4FBB68012B29D8424904A888
:1053E0000DF070F8390004A80DF009F9010007A8C4
:1053F0000DF0DAF807A938000DF0E0F807A80DF075
:1054000019F804A80DF016F8E4E701221A70CBE7AA
:10541000390007A80DF0C8F83A4907A80DF0FCF8C4
:10542000010020000BF005FD07A80DF003F8C2E70E
:10543000390020000BF0FDFC602332780A212000A7
:105440002B8004F0D5FA304920000BF0EEFC6623E7
:105450002B80224B32781978200004F0C9FA2B4BAC
:105460000A22197820000BF06EFD264920000BF06F
:10547000E7FC7A232B80264B0A22196807A80DF037
:1054800051F8244D07A928000DF098F807A80CF052
:10549000D1FFAB68042B16D8134904A80DF012F8FD
:1054A000290004A80DF0ABF8010007A80DF07CF866
:1054B00007A928000DF082F807A80CF0BBFF04A88C
:1054C0000CF0B8FFE5E7290020000BF0B2FC0BB0B0
:1054D000F0BDC0460C120020BA6A0100281200205C
:1054E0003400002010120020B86A0100D4160020F9
:1054F000F9050020E7030000BD6A0100090600204D
:105500001C120020BB6A0100C36A01000A060020C9
:10551000D806002044120020F0B5394C89B0394932
:10552000200004F013FA0221200003F051FF364955
:10553000200004F047FA0021482004F095FA334B8C
:1055400033491B78002B00D132490322200007F099
:1055500041FC0C21082004F087FA03222E49200088
:1055600007F038FC0623182200930821523320004C
:1055700003F08DF92426002531B2102004F074FACE
:10558000264BA900C9580A2205A80CF0CBFF05A993
:1055900023480DF013F805A80CF04CFF204FBB6812
:1055A000042B16D81F4902A80CF08CFF390002A862
:1055B0000DF025F8010005A80CF0F6FF05A938004C
:1055C0000CF0FCFF05A80CF035FF02A80CF032FF30
:1055D000E4E7390020000BF02CFC134920000BF00D
:1055E0002FFC0A236B4311492000C9180C360135E2
:1055F0000BF026FCB6B2072DBED109B0F0BDC046F7
:10560000E41600206886000020F700001406002041
:10561000706B0100586B0100286B01001806002018
:1056200034060020B86A0100C06A0100AF02002001
:10563000F7B50E22461E0500100070434A4B4F1E60
:1056400018180C00C15D0B291CD0015D0B2919D065
:10565000611C405C0B2815D0100068431818C35D0E
:105660000B2B0FD0405C0B280CD0681C42433E4BE8
:105670009B18DA5D0B2A05D01A5D0B2A02D05B5C01
:105680000B2B01D1FFF7BCF80E22F3B200936B1C79
:10569000DBB201936A43354B661C1978324BF6B284
:1056A000FFB29B18002937D1242231001A550098E7
:1056B000203AFFF731F8042231002800FFF72CF8D8
:1056C000042231000198FFF727F8042239000098DE
:1056D000FFF722F8042221000098FFF71DF80422AA
:1056E00039002800FFF718F8042239000198FFF765
:1056F00013F80422210001240198FFF70DF81C4B38
:105700001C491D481C7004F021F921001B4802F0BF
:1057100001FC1B4B1C70F7BD202231001A5500986C
:105720000022FEF7F9FF002231002800FEF7F4FF07
:10573000002231000198FEF7EFFF002239000098A7
:10574000FEF7EAFF002221000098FEF7E5FF0022A5
:1057500039002800FEF7E0FF002239000198FEF72B
:10576000DBFF0022C6E7C046F01000201406002030
:10577000E9060020FFFF0000401700200C17002062
:1057800015060020F8B50E234343314F9446FB180D
:105790005A5C4C1C0600185DD2061AD50F2318401F
:1057A0000B2812D80DF06EF80B1111111111110CFC
:1057B0000C0C0C06FFF724F80122264B1A70F8BDDA
:1057C000E1B23000FFF734FFF9E70122214B1A70F4
:1057D000F5E7002806D13022604602431A55202200
:1057E0005A54ECE7FD25821E2A4223D1721CEF3D5C
:1057F00055437D192A5D002A09D16A5C002A06D129
:105800006046303202432A5520225A54D7E70E20F0
:10581000731E4343FB181A5D002AD0D15A5C002A3C
:10582000CDD1654630322A431A5520234643BF194D
:105830007B54C4E76246022AC1D10528BFD18A1C25
:10584000985C0028BBD12030585434219954B6E7D5
:10585000F0100020E9060020F8B52E4BFC33986BC1
:105860002D4B19784B42594104310DF0A5F8002910
:1058700031D101240F27294E01250E226A43B05C45
:10588000EBB23840023808280BD80CF0FBFF050AB1
:10589000250A0A2B37313D00022221001800FFF7AC
:1058A00071FF0135132DE8D10134E4B201360D2C1E
:1058B000E2D11B4900230C000C310F34FF31033DB2
:1058C000E218CE181078A84310700E32B242F9D107
:1058D00001330C2BF4D1F8BD042221001800FFF78E
:1058E00051FFDEE7072221001800FFF769F8D8E72B
:1058F000092221001800FFF763F8D2E708222100EF
:105900001800FFF75DF8CCE70A2221001800FFF726
:1059100057F8C6E7D416002014060020F110002026
:10592000F0100020F7B5934C2378002B05D0002110
:10593000914802F0EFFA00232370904C04212000DC
:1059400002F0BEF98E4D002800D179E02B78002BB3
:1059500000D075E001228B4B1A70FEF751FF8A4B85
:105960008A481B689C466246894BD20F1B6862447A
:105970001B0152109A1A874B17001C68864B1500A2
:105980001968E30F1B1909015B10CB1A19000831C4
:1059900001918249183F096808358F4200DCBCE05C
:1059A0000127077000207E4E3070784F387800282D
:1059B00009D0A020664640000231801B774E81420C
:1059C00000DDB0E03160754828320168744F8A42CA
:1059D00000DBACE0012200253A706C4A15703A7881
:1059E000002A03D0023900D5A7E001601E006D4AED
:1059F000183E11686C4D6D488E4200DCA1E0012616
:105A00002E70002606702E78002E06D0E026023179
:105A1000341BA14200DD9BE01160116828338B42EA
:105A200000DB99E00123037000232B700378002B27
:105A300005D002390B000C3300DA94E01160F7BD99
:105A40000421200002F03CF9002802D02B78002B22
:105A500056D12B78002B00D081E7554B1B78002BBB
:105A60000ED1484B197800290AD1524B52481A7866
:105A7000524B1B789A424DD3514B0A0005F068F9FE
:105A80005048514B0578002D02D01A68511E1960FC
:105A900001221B686A400270002B01D1FEF7B0FEA4
:105AA00004220221200002F01DF9002803D0002169
:105AB0000120FEF7DFFF04220121200002F012F98D
:105AC000002804D0012000214042FEF7D3FF042229
:105AD0000021200002F006F9002803D00121002057
:105AE000FEF7C8FF04220321200002F0FBF8002883
:105AF00000D134E7012100204942FEF7BBFF2EE729
:105B000001222B4B1A70314B1878FEF769FB0023EA
:105B10002B7024E704F05BF8B2E7A94200D044E719
:105B20000027077041E70021306039704BE7A94238
:105B300000D054E700223A7051E7002202603A7028
:105B400054E7019EB14200D05DE700262E705AE76F
:105B500000211460297060E7019B994200D065E73D
:105B60000023037062E70C235B4213600023037081
:105B700065E7C046150600200C170020D41600204B
:105B800008060020E906002010060020E506002097
:105B9000000600200C06002004060020EC05002072
:105BA000E4060020F0050020E7060020E6060020BD
:105BB000E806002009060020401700200A06002001
:105BC00068060020F805002034000020FC050020B5
:105BD00037B5684C200000F065FF0028F9D0664D0D
:105BE0002B78012B06D0002B00D199E0032B00D19C
:105BF00076E037BD614803F0EAFF614C614A2378E3
:105C0000002B00D1604A0323604900936048DB18F1
:105C100007F0B0F80528ECD80CF034FE030A112385
:105C20002A5D5C4B1B78002BE3D000232B70E0E750
:105C3000FEF786FC584B1878FEF7D2FAD9E7564A99
:105C4000564913780978994201D9013313701078B5
:105C5000FEF7C6FAFEF706FC0023514A2B701370BC
:105C6000C7E74D4A1378002BF1D0013B1370EEE7E4
:105C70000122237800215A404A48227007F040FF51
:105C80002378002B1BD0484A1078434A1070002B11
:105C900018D0464A127841490A70002B15D0444A60
:105CA00012783C490A70002B12D0424B1B68424AC2
:105CB000136000223A4B1A70FEF792FA99E73F4AB6
:105CC0001078E2E73E4A1278E5E73E4A1278E8E7C4
:105CD0003D4B1B68EBE7FEF70DFB03232B7088E7BA
:105CE0000421200001F0ECFF002801D001232B70DB
:105CF000284B1B78013B132B01D9FEF78BFCFC349E
:105D0000FFF70AFCA06B0A210CF056FE002900D117
:105D10006FE700222D4B1100184805F019F868E7CD
:105D20000621200001F0C4FF002801D001232B70C0
:105D3000FFF7F8FDFFF790FDFFF7E6F8154B1B782E
:105D4000013B132B03D9FEF7D5FA03232B70230055
:105D5000FC33986B0A210CF02FFE002900D048E795
:105D6000200000F0DBF81A4902001A480BF084F812
:105D70003FE7C046D416002047000020401700200F
:105D8000140600201C00002004000020E06A01002E
:105D9000FE170020AC020020FC050020D6060020E3
:105DA0000806002064170020FB050020D50600200F
:105DB000AE020020E0060020D8060020FA050020F0
:105DC000D4060020AD020020DC060020B006002032
:105DD00048B0010028240020027C0023120704D5CB
:105DE000C36A406A1B1A00D5014B18007047C046B1
:105DF000FFFFFF7F10B5103008F068F910BD10B537
:105E0000103008F083F810BD13B56B46DC1D103060
:105E10000122210007F0C2FF012801D1207816BD20
:105E200001204042FBE710B5103008F0FDFA10BD2C
:105E300007B56B46D971073310300122190008F0FD
:105E4000F3FA0EBD10B5002304008AB001A80A00C1
:105E50000380210008F08BF90AB010BD03000A008E
:105E600070B51033103270CA70C370CA70C370CA74
:105E700070C34B6843608B688360CB68C3600B0062
:105E800034331A78030034331A700B0035331A7820
:105E9000030035331A708B6B8363CB6BC3638B1C2E
:105EA000DA8F831CDA870B1DDA8F031DDA874B6CC0
:105EB00043648B6C836470BD73B505003835040092
:105EC000280003F089FE0600280003F097FE002258
:105ED00023000190009628001033110002F0A2FB6D
:105EE00073BD10B50400FA2080000CF069FDAC23EE
:105EF0005B00E05410BD70B50AF088FB04000AF0A6
:105F000085FB444301200AF037FD050002200AF01A
:105F100033FD684360400CF087FA70BDAC2203008B
:105F20000A2110B55200825CFC335143D86B0CF04F
:105F3000BDFCC0B210BD7047F0B54B4D4B4C9FB08F
:105F400000900191200029000292FFF77BFF031EC1
:105F500006D111A803802A000133210008F0C6F9F8
:105F60000023FA2704AA414E13820593404BBF0039
:105F70004049300006970493FFF764FF041E25D1C3
:105F800011AD3B4B2882139715AF3A4A310012905E
:105F900011933800384B08F0EAF808AB07CF07C375
:105FA00007CF07C307CF07C3129B21000593AB6838
:105FB00008A80693EB680393079307F0D7FF200028
:105FC00004A907F019FA08A808F0CAF8FA2300256E
:105FD00011AE9B0035821393254B15AC254A2349FE
:105FE00011932000244B129508F0C1F808AB07CCA0
:105FF00007C307CC07C307CC07C3129B290005932F
:10600000B36808A80693F3680393079307F0AEFFFD
:1060100004A807F0E9F90199431C029A009807F0D7
:106020008DF90400290008A807F0A0FF631C12D115
:1060300004A9280007F0E0F92B00029A01990098C2
:1060400007F07CF90400431C05D108A808F088F883
:1060500028001FB0F0BD04A9200007F0CDF908A862
:1060600008F07EF80120F4E7B0B30100901600209C
:1060700024B20100B4B301000242000010B50400D4
:106080000021383003F062FC20002A30FF3001F09C
:1060900085FD10BD0300F0B5070034339BB0180038
:1060A000039309F0C7FDA94B3C0000229B5E3834E6
:1060B0000993A74B200000229B5E00250A93A54B65
:1060C0001B880B93A44B1B880C93A44B1B780D933C
:1060D000A34B1B780E93A34B1B680F93A24B1B780B
:1060E0001093A24B1B78119302F0CEF90321149068
:1060F000200002F09BF9200003F09EFD9C491290C5
:10610000200003F093FD3B004533FF331800069356
:1061100001F08AFA069801F08BF9EBB20698059324
:1061200001F07EFA934BEB5C834203D20135052DDF
:10613000F3D105959049200003F044FC202334223C
:10614000009300218033200002F0A6F88B49200044
:1061500003F038FC0223200000933822884B0021F2
:1061600002F0BCFB039809F07BFD002847D182496F
:10617000200003F027FC10233C2200933221063B31
:10618000200002F089F80021200003F01BFC1C25F0
:10619000002202261100A0232000009502F07CF8C6
:1061A0007649200003F00EFC002120000096754B7C
:1061B000042202F093FB7049200003F003FC20004E
:1061C00003F00AFD2AB203000096002120000435E6
:1061D00002F062F8342DF2D102262235200003F0BD
:1061E0000DFDA84211DD200003F0F6FC2AB20300E9
:1061F00000960021200002F04FF80435EEE70398E6
:1062000009F012FD0028B2D1BDE700230125089353
:106210001393023304930AF0F3F9139BC01A28284E
:10622000F9D9039809F0B6FC0AF0EAF9139038009E
:1062300001F0F8FC089B06980133089301F0F4F98B
:106240000721380001F03CFD002800D0CBE20521F9
:10625000380001F035FD002800D0C4E206213800E6
:1062600001F02EFD002800D0BDE2042202213800FA
:1062700001F038FD002819D104220121380001F075
:1062800031FD002806D0049B002B03DD0500013BF7
:106290005BB20493049B042B00D9D0E018000CF0EF
:1062A000FBFA0D0073009F01AA01FD01049B032B63
:1062B000E2DC01335BB204930500DDE70422032135
:1062C000380001F00FFD002806D0059B032B03D8F2
:1062D00005000133DBB2059304220021380001F0F0
:1062E00001FD002806D0059B002B03D00500013BD3
:1062F000DBB205930421380001F0E2FC002812D043
:10630000059B5A4253419B0005931A4B059A0698E8
:10631000995C01F05DF93800059A0421DC3007F042
:10632000EFFB012501E0002DEFD10026069801F0DA
:106330004CF9864200DB82E0FF23B1B200931A00E1
:106340000698013601F01EF9F6B2EFE7461A002072
:10635000481A0020401A0020441A0020501A002039
:10636000130300203C1A0020521A0020381A002083
:106370007EBA010070B6010068520000FFFF000005
:1063800075B6010026B401000421380001F098FC24
:10639000079000281FD0039809F046FC3E00050036
:1063A000DC360398002D00D1D6E009F037FC00223E
:1063B0000121300007F0A4FB039809F051FC07907D
:1063C000002808D10621039809F040FC062207990D
:1063D000300007F095FB04220321380001F082FC15
:1063E000061E21D0039809F03BFC07281CD803980F
:1063F0003D0009F019FCDC35002800D1C5E0039808
:1064000009F00CFC01210022280007F079FB012192
:10641000039809F01BFC039809F022FC00210200FC
:10642000280007F06DFB350004220021380001F040
:1064300059FC002800D0B1E0002D00D0CBE00723AC
:10644000089A1340032B00DD0DE2BE49200003F043
:10645000B9FA049B1E2659018BB207936B461C2187
:10646000595E202334220093200002F0C5F9079BD7
:106470000096591C09B233003522200002F0BCF905
:10648000002D00D104E2AF49200003F09BFA042262
:106490000121380001F026FC002812D0049B342290
:1064A0005D1C20236D01ADB229B20093200001359F
:1064B00002F0A2F929B2009633003522200002F042
:1064C0009BF904220221380001F00CFC002812D0B4
:1064D000049B34225D1E20236D01ADB229B20093CE
:1064E000200002F089F91E23013529B200933522DC
:1064F000200002F081F9049B012B00D0E9E1039810
:1065000009F0AEFB002800D0AFE18E49200003F077
:1065100059FA10233C2200933221063B200001F05F
:10652000BBFE039809F09CFB002800D1C8E1864916
:10653000200003F047FA039809F092FB54220799D0
:106540008000121A1E3100B2009012B209B202236A
:10655000200002F051F9B3E109F082FB002809D0D4
:10656000039809F055FB01223000110007F0C8FA2A
:10657000079D30E70621039809F068FB29000622F1
:10658000300007F0BDFA079D25E7039809F068FB86
:106590000130C1B2039809F059FB3CE7039809F0B8
:1065A0005FFB002800D147E7039809F03DFB061E7A
:1065B00000D041E7039809F053FB0138C1B20398BA
:1065C00009F044FB039809F04BFB0200380031004E
:1065D000DC3007F095FA039809F0BEFA01252EE7A2
:1065E0000421380001F064FB002800D127E73800BF
:1065F000FFF744FD23E70421380001F061FB079019
:10660000002800D11BE75049200003F0DBF92023CC
:10661000342200936021200002F0EEF81E23352280
:1066200000936121200016AD02F0E6F80E224749E2
:1066300028000EF02FF90522042128004226FFF73A
:106640007BFCFF3600281AD1B8554149200003F0E1
:10665000B9F92023342200936021200002F0CCF805
:106660001E23352200936121200002F0C5F8C820C6
:10667000400009F0FBFF0123079DBB55DFE64223E5
:106680003800AB7229000E3310302B7304F09CF8E5
:106690000023BB559842D8D02E49D7E704213800B3
:1066A00001F00EFB002844D02749200003F08AF9AE
:1066B0002023342200938021200002F09DF81E2325
:1066C000352200938121200016AD02F095F80E22AC
:1066D0001E4928000EF0DEF8052204212800FFF7ED
:1066E0002BFC192207900421380001F0F3FA42260E
:1066F000079B1590FF36002B2ED16B461B7FBB5599
:106700001349200003F05EF92023342200938021F6
:10671000200002F071F81E23352200938121200011
:1067200002F06AF8C8200125400009F09FFFBD551E
:1067300085E619220421380001F0CCFA0028B3D1F3
:106740007DE6C04668520000FFFF000005B401006E
:10675000E4D8000068860000159B002B00D07CE088
:10676000FA204233AB720E332B730933FF33F95CDB
:1067700080000CF025F9032358435E33FF33F852B1
:10678000380016A9103004F00CF80023BB559842CD
:10679000B6D00122514B1A70159B002B0BD00A204A
:1067A00009F064FF380001F03DFA0421380001F0DF
:1067B00087FA0028F3D04A49200003F003F9202388
:1067C000342200938021200002F016F81E23352287
:1067D00000938121200002F00FF8C820400009F04A
:1067E00045FF0123BB55039809F02AFA6A463D4B41
:1067F000928C34211A806A463B4B128D20001A80FD
:106800006A463A4B928D1A806A46394B128E1A802C
:106810006A465218374B127804311A706A46521879
:10682000354B127808311A700F9A344B1A606A4649
:106830005218334B127804311A706A465218314B91
:10684000127814991A7001F0F1FD1299200003F0EA
:10685000E7F9FFF770FB1BB0F0BDB02301225B002E
:106860005242FA528CE72849F0E5039809F0DCF926
:10687000002800D049E62000244903F0A3F80223B1
:10688000382200933021224B200002F027F848E6FE
:10689000049B002B19D1059B002B11D01B49200014
:1068A00003F090F85422059B0799DB00D21A1E31A1
:1068B0001BB2009312B209B20223200001F09CFF28
:1068C000069800F0B5FD0025A5E4049B012BF7D147
:1068D00027E6049B002BDED0F2E7C046CC16002052
:1068E00068860000461A0020481A0020401A00203E
:1068F000441A0020501A0020130300203C1A0020E4
:10690000521A0020381A002068CC0000FFFF000057
:106910008CB40100F0B5B0256D00435F8FB004006A
:106920005A1C01D0013B43530721200001F0C8F954
:10693000002808D1635F002B00D099E04D4B1B78F5
:10694000002B00D194E04B4B1B78002B00D18CE046
:10695000494B260000229B5E38360293474B30009D
:1069600000229B5E25000393454B34351B8827008E
:106970000493444B45371B88FF370593424B1B78E4
:106980000693424B1B780793414B1B680893414B7E
:106990001B780993404B1B780A9301F075FD032186
:1069A0000C90300001F042FD300003F045F93B4906
:1069B0000B90300003F03AF9280009F03BF9280069
:1069C00009F032F90D90280009F022F92300103364
:1069D00018003349019303F057F8380000F024FE03
:1069E000380000F025FD0121019803F0E5FE0023A9
:1069F000204A20001370FFF75FFA0D9B002B02D195
:106A0000280009F00BF9280009F01AF96A461A4B18
:106A1000128924211A806A46184B928930001A8004
:106A20006A46174B128A1A806A46164B928A1A8057
:106A30006A46154B127E1A706A46144B127F1A7002
:106A4000134B089A1A606A465218124B1278043196
:106A50001A706A465218104B12780C991A7001F08D
:106A6000E5FC0B99300003F0DBF82000FFF712FB88
:106A70000FB0F0BDCC160020461A0020481A0020A6
:106A8000401A0020441A0020501A0020130300204E
:106A90003C1A0020521A0020381A00207EBA010049
:106AA000CCB70100F0B505008BB0FC352E6E0400AC
:106AB00009F0A6FDAC27301AA0267F00E35D760022
:106AC00098421BD9A35D0393002B17D009F098FDC2
:106AD000E35D1818AB6B28660133AB630023A35545
:106AE00009F094FD2864200001F09CF820002C306F
:106AF000FF3006F07BF903980BB0F0BDA35D039364
:106B0000002B7AD12000FFF705FF20002C30FF304A
:106B100006F0D0FA20002B30FF3005F009FD2000F0
:106B20002700343009F036F86C372000FFF7C4F93D
:106B3000380003F063F8C3B23800069303F04CF852
:106B4000C3B205932E4B039E0493069AF3B29A4266
:106B500028D9002523004533FF33059A0793EBB26C
:106B60009A4218D929B232B2380003F041FE06F039
:106B70001CFC0304010209AA090E1B0E107091707F
:106B80005370C2B20498405D00910100079800F074
:106B9000F9FC0135DEE7059A049B9446634401360F
:106BA0000493D2E726002500164B45361B78FF36A6
:106BB000FC35002B0FD0A86B0A210BF0FDFE002343
:106BC000042218008A4258414242D2B2009307215F
:106BD000300000F0D7FC300000F02AFC300000F05C
:106BE00023FD09F013FD2B6CC01AE86305F092FB3E
:106BF000A02301225B00E2547DE7002303937AE7A0
:106C0000EFB60100CC16002010B50A00DC300D23D1
:106C1000022106F015FF10BD73B5012504002B00FD
:106C2000019500958022A021103003F04FFF200035
:106C30001F221E21383001F0BBF82000019500957D
:106C40000023042202216C3003F040FF22000023C5
:106C50002600FA201B49A0321380C436103A800067
:106C60001160536090603370737053645C321380B2
:106C7000103A116021001131FF31536090600B70A8
:106C80004B7053642C22FF32A35422002C32FF326B
:106C9000D570537093701371537142222000FF32EC
:106CA000A3545219A35445301D3A5233FF3A0821D8
:106CB000FF3000F051FCB02301225B005242200063
:106CC000E25276BD24B201000B4B10B518680028C3
:106CD00010D04223FF33C35C002B0BD0A0235B00FA
:106CE000C35C002B04D10300FC331B6C002B01D0D0
:106CF000FFF7D8FE10BDC046D01600200022642049
:106D00000C4B0D4910B55A52243158540B490C48BC
:106D10005A540C490C4C58500C49DA715A540139E8
:106D20005A542000FFF778FF094A0A4920000DF065
:106D30002DFD10BD541200203C0400006A04000028
:106D400000093D006C040000D4160020710400000E
:106D500000000020B96D0000F0B58DB01E0012AB30
:106D60001F7801230C000193009315004E210A2285
:106D700003A803F0ABFE03A802F029FF022103A839
:106D80000C4B0022494203F0B5FA0A23B8B2434340
:106D90003200019329004E23424341435843256862
:106DA000009003AB2000AD6BA84703A803F0D0FB15
:106DB0000DB0F0BD26B4010010B504004530FF3021
:106DC00000F0D2FA20006C3003F0C2FB2000054B2B
:106DD0003830A36302F0E0F82000103003F0B8FB75
:106DE000200010BD7CB70100F0B504008FB0214930
:106DF00005A803F0EBFD2000FFF754FE2000002261
:106E000034301D4908F034FE182302260393200075
:106E1000FFF748FE0028FAD06B461D7B6F1EFFB2BD
:106E20007BB20393230010331800029302F0CFFECD
:106E3000124B1E7000230A2F01D80B3D6BB232009B
:106E40000299200000962500FFF786FF00226C358E
:106E500005AB1100280003F07BFF002FD7D12800DD
:106E600002F0B5FE2000FFF71DFE05A803F070FB41
:106E70000FB0F0BD9AB4010014B40100501A002004
:106E8000F0B502220500837E93B00793838B5A4EA0
:106E90000493C38B31000593584B59481A702C004A
:106EA000FEF7D0FF10340390002807D00123059A85
:106EB000009304993300200003F004FC514909A811
:106EC00003F084FD2800FFF7EDFD0028FAD0039BB6
:106ED0002000002B67D003F0A9FC2B000722FC3315
:106EE0009B6B00211340032B00D94749200002F07F
:106EF00069FD200002F070FE0600200002F07EFE18
:106F00000022009033001100200001F075FC2B00DE
:106F10000722FC339B6B1340032B68D9012109A87E
:106F200003F0BAFC200002F057FE50380600701E35
:106F3000864109A802F050FE01367043C3B209A889
:106F4000069302F05BFE4643200002F045FE069BDE
:106F5000F6B2C71A200002F051FE6B46821B36B211
:106F600001961820185EFFB239B20090D2B220000C
:106F700009AB01F0DBFD0421280000F099FE002898
:106F8000A0D02800343008F0E7FD0123059A0193D2
:106F900000930499079B200003F096FC09A803F0D6
:106FA000D7FA13B0F0BD02F012FE2000164902F02D
:106FB00009FD092150230F22104E307841434343ED
:106FC000424300912000039901F061FC20000F4929
:106FD00002F0F8FC112130784143400002F044FDFA
:106FE00029006331FF31200009F03CFF75E70021E3
:106FF00009A803F051FC95E7F5020020501A002083
:10700000901600203CB2010068CC0000FFFF000099
:10701000F0B50226BC4A9FB013780400B343137046
:10702000BA4BBB49186003006333FF330B221800CF
:1070300003930DF02FFC6E2300272822FF33E75423
:10704000153BE254183B273AE254FF220E3BE25430
:1070500023004533FF331800049300F095F904989A
:1070600000F0E2FA200000F0CDFD200000F0DAFD93
:107070003A000521200000F035FE230025003833BA
:107080000690079018001035059300F0DBFF0321F0
:10709000059801F0CBF93900280002F057FC9D4B10
:1070A0009D4928001E7002F08DFC9A4B32001B781F
:1070B0002900009320003300FFF74EFE3A00974965
:1070C000280002F0B5FC280002F098FD0600280018
:1070D00002F078F98F4B19784143711A380009B2E0
:1070E00002F0C2FC8E49280009F0AAFE2000FEF73B
:1070F000E3FE09AA177157710A9A8A4F8A4B0092C8
:107100008A491A223800099308F07DF8002800D136
:10711000CFE0874E8748376007F022F80121300022
:1071200007F0FAFE011E00D1BDE0814F814E39000B
:10713000300006F019FE002800D1BAE07E4BFA5C60
:1071400070231A4200D1B4E07C4B01221E60A123BF
:107150005B00E2547A490022280002F069FC794978
:10716000280009F07FFE2000FEF7A6FE200000F0B8
:1071700059FD069B002B05D11A000521200000F0C7
:10718000B1FD079000226449280002F051FC002163
:10719000280002F0DBFB674F03993800FEF752FE30
:1071A000031E06D10BA80380039A0133390007F0B0
:1071B0009DF800230BAE33806333FF33E35C2F2B4A
:1071C00000D089E06423FF33E35C002B00D083E030
:1071D000380006F0C5FF5649380006F0C5FD039A91
:1071E00059490BA806F01CF92000260027000BA91E
:1071F0009030FEF733FEDC36544A55490BA806F0B2
:107200000FF90BA93000FEF729FE343720210623A1
:10721000504A300006F01CF9380008F0E1FE012168
:10722000300006F0DBFB002802D0380008F0F0FC4C
:107230000021300006F0D2FBC1B2380008F006FD94
:10724000079B002B07D001223000110006F058FCEC
:10725000380008F0DDFC0321300006F0BFFB05F02C
:107260009BFD0421300006F0B9FB3B4B195C0498F0
:1072700000F0AEF9059805F05DF8384B1B78DB0798
:1072800005D52000FFF7B0FD2000FFF7F9FD200035
:10729000FEF731FE280002F09AFC42230122FF3360
:1072A000E2541FB0F0BD300007F036FE002800D0D9
:1072B0003BE7A12300225B00E2542800284902F0AA
:1072C000B7FB2849280009F0CDFD2000FEF7F4FDAA
:1072D000642009F0CBF949E7164F0023039A3900DF
:1072E000300006F044FF002800D178E770233278A0
:1072F0001A4200D173E73B0007CE07C307CE07C38E
:1073000007CE07C36BE7C04600100040D016002030
:10731000C2B30100501A0020FFFF000068CC00003B
:10732000D1B30100B4160020001BB700C016002026
:1073300054120020901600203C040000741A002013
:1073400068860000DDB30100E9B30100F2B301007B
:10735000F7B3010028B6010070B601003804004000
:10736000E4D80000E1B3010010B5040080680028F3
:1073700001D00DF059FA06202056002802DB00212A
:1073800009F052FC200010BD10B504000620205664
:10739000002807DB012109F047FC062000212056C8
:1073A00009F08EFC0123637010BD70B50500806884
:1073B0000E00002801D00DF037FA2B7BEC7BE41A8D
:1073C000631E9C4103347443A4B2AC8020000DF0D2
:1073D00021FAA860002805D0220000210DF076FADD
:1073E0006E8070BDA8806880FBE70322F8B58B1122
:1073F0000D118E101640134015400A4046738273DB
:107400000026FF228A4276418268C47B077BC373D1
:1074100005730670002A0AD0E21B5B1B51424A41E9
:1074200059424B419A4202D04188FFF7BEFFF8BD56
:10743000F8B583680400002B00D16BE009F0E6F892
:107440002369C01A3128F9D972B6062318220121FE
:10745000E356314F5343FA185268A5889140A26809
:107460005519501C1678DA5D2C4BD2019C462C4BDA
:107470009444D218802367463960C046C046C0464F
:10748000C046C046C046C046C046334221D0C04672
:10749000C046C046C046C046C046C046C046C046BC
:1074A000C046C046C046C046C046C046C046C046AC
:1074B000C046C046C04611605B1020D0DBB2C0465B
:1074C000C046C046C046C046C046C046C046C0468C
:1074D000D1E71160C046C046C046C046C046C0465F
:1074E000C046C046C046C046C046C046C046C0466C
:1074F000C046C046C046C046C046C046DCE762B68D
:1075000072B6A84202D206780130B3E762B609F03B
:107510007DF82061F8BDC04600BF0100184400415D
:107520001444004170B5437804000D00002B06D0D0
:1075300006202056002802DB002109F075FB637845
:10754000A571002B07D00121280009F06DFB002157
:10755000280009F0B5FB70BD70B5150000220400CD
:107560000E004270C271826002611900FFF73DFF98
:1075700031002000FFF719FF29002000FFF7D2FF9C
:10758000200070BDF0B505AC257844888C4216D932
:10759000C479002C05D0624363436543120A1B0A79
:1075A0002D0AC47B077B8668A74209D10324614367
:1075B0007118047B0A55427B8B54837BCD54F0BDFC
:1075C0008900711800260E55F3E7408870470000C7
:1075D00070B5866805000A00002E1ED04C1CC379C9
:1075E000E4B2A34219D00020013BD9B2814205D0B8
:1075F000FF2A0ED109480BF0E3F980B20023A988D5
:107600009AB2914208D9F25C42431212F254013309
:10761000F5E720020138EEE7EC7170BDFFFF0000D6
:10762000C0790138C0B27047836810B5002B04D010
:107630008288002118000DF049F910BD094B186827
:10764000002809D1EFF310820749002A08D172B649
:10765000BFF35F8F01320A701A6801321A607047F7
:107660000870F9E7D8190020D4190020084B1A68CF
:10767000002A0CD01A68013A1A601B68002B06D148
:10768000044B1B78002B02D0BFF35F8F62B67047AC
:10769000D8190020D4190020FF23002110B50400C0
:1076A0000370FC3B41708170C170017143710C2209
:1076B00008300DF00BF9200010BD000001220B0076
:1076C00010B5134008D00D4B1A7004234370836823
:1076D000002B00D0984710BD0222114204D0074968
:1076E0000A704370C368F3E704231942F3D0034AD6
:1076F0001370033343700369EAE7C0464E48004104
:1077000010B5FFF79BFF0C4B1B8C1B071B0F0B2BA4
:107710000FD80A4A9900885800280AD00F2408492F
:107720000A78A24313430B70064B1978C9B2FFF7CE
:10773000C5FFFFF79BFF10BD00480041DC1900208A
:107740003F4800414E480041F8B50023027805004B
:1077500018000B2A77D93C4E2B702B780B2B07D8AF
:1077600001229A403168114204D001332B70F4E7B2
:10777000012068E0FFF762FF3768344C002F2BD1FF
:107780002022334B334859690A435A611022D96980
:107790000A43DA6102222388390093432380238835
:1077A000013A134323802C4B6063BF32A3630DF077
:1077B0008DF8C022390028480DF088F84022C120F9
:1077C000264B80002380264B26491A601A58114008
:1077D000C02212040A431A5001231A002978306883
:1077E0008A40024332600F261F4A880085501F4896
:1077F00031400278B2430A43027002201C4A1178D9
:1078000081431170117819431170297822698B40D6
:107810009A43226160223F21636C934363642A7917
:10782000636C0A40134912020B4003211343636443
:107830006A79636C0A40104992050B4013436364F4
:10784000FFF714FF0020F8BDD019002000480041C8
:10785000000400401019002050180020020F000002
:1078600000E100E0FFFF00FFDC1900203F4800417D
:1078700040480041FFC0FFFFFFFF3FFF70B504001D
:10788000FFF7DCFE63785BB21D00062B30D0217859
:1078900002250B292CD8A3780135002B28D0164BB4
:1078A0000A019B185B88002B22D0A3685A1E9341C3
:1078B000E268DBB2002A01D0022213432269002AC7
:1078C00001D004221343062262700F240B4821408A
:1078D00002780025A2430A430270094A1370072266
:1078E0005340084A13700223074A11780B43137060
:1078F000FFF7BCFE280070BD101900203F48004172
:107900004D4800414C48004140480041023292003D
:107910001150704770B50500297103780C000B2BCE
:1079200014D8FFF78BFE29780F25094829400378E2
:10793000084AAB430B433F210370536C0C4006498C
:1079400024020B401C435464FFF790FE70BDC046F8
:107950003F48004100480041FFC0FFFF70B50500EF
:10796000697103780C000B2B14D8FFF767FE297898
:107970000F25094829400378084AAB430B430321EC
:107980000370536C0C400649A4050B401C4354641F
:10799000FFF76CFE70BDC0463F4800410048004103
:1079A000FFFF3FFFF0B587B001930CAB1E780DAB26
:1079B0001B78050002930EAB1B780078039310AB85
:1079C000049105921F780B2802D9002007B0F0BD62
:1079D0006B78062BF9D0AB78002B00D178E0102122
:1079E00008000CF00DFF0028EFD02B783A4A1B015D
:1079F0009B181A00D168002904D0D1688B4201D0AD
:107A0000D268F7E7D06001230221AB709E4203D019
:107A10004918022E00D01900062402881A43028059
:107A20000288A243028002881234A2430280153CDD
:107A300002882640294C3602224016430680029EC8
:107A40000288274C1E402240B60216430680039E41
:107A50000288244C1E402240F6021643068002880B
:107A6000214E3B4032401B031343072203800F9BF0
:107A70001A4003885203DB04DB0C134303806B467C
:107A80009B884380049B4360029B002B08D0019B92
:107A900042684B43002F01D00F9CA340D318436092
:107AA000059B8360039B002B08D0019C4C4381689D
:107AB000002F01D10F9B9C400C1984600023EA78B1
:107AC0009A4203D02B78044A1B019B18C3607DE7C0
:107AD000014B0001C01896E710190020FFFCFFFFC2
:107AE000FFFBFFFFFFF7FFFFFFEFFFFF30B50C8845
:107AF0000220A405A40F012C03D00018022C00D0F2
:107B00000338039C002C01D0A4B24C80002A0ED074
:107B10004A600A8852050AD50A88D20419D54A88CB
:107B20000C884243640BA2404D6852194A60002BF6
:107B30000ED08B600B881B050AD50B88DB040DD497
:107B40004B880A885843520B90408C680019886013
:107B500030BD4A884C6842431219E7E74A888B686F
:107B60005043C018F3E700008378C170002B11D098
:107B70000378094A1B019B181A00D068002804D01A
:107B8000D068834201D0D268F7E70020814200D05C
:107B90001800D0607047C0461019002010B5024B85
:107BA0001B68984710BDC046F43F0000064A074BCB
:107BB000126810B59A4202D8FFF7F0FF10BD044BCF
:107BC00008001B689847F9E7FC3F0000010001002E
:107BD000E83F0000044B10B5186801212A30FF303F
:107BE000FFF7E4FF10BDC046D0160020044B10B5CF
:107BF000186802212A30FF30FFF7D8FF10BDC046B9
:107C0000D016002010B5064808F0E2FB012119202B
:107C100009F00AF80121192009F052F810BDC046F8
:107C200028230020F7B500266B461D4F5E711E719C
:107C3000019A04001B49380008F0F2FB31001920BA
:107C400009F03EF81023013BFDD10121380008F076
:107C500017FC01210500192009F032F8380008F05E
:107C6000FBFB01203100104E2F000F414A00A35AA8
:107C700007420CD10D4FBB4202D80133A35202E0A0
:107C8000B34200D1A05201310829EDD1F7BD002B3C
:107C9000F9D0B34201D10023F0E701235B42EDE7C5
:107CA00028230020001BB700FFFF0000FDFF00009D
:107CB0004900085A013843425841C0B27047000099
:107CC0004900034B085AC01843425841C0B270479C
:107CD0000100FFFF49000B5A01329A1A50425041ED
:107CE000C0B27047490010B5085A012A08D80023CD
:107CF0000138094A80B282425B41DBB2180010BDF4
:107D0000064900238842F9D011000AF055FE8BB2D3
:107D1000013B59424B41F0E7FDFF0000FFFF00002F
:107D2000024A1368022BFCD97047C04608030020A2
:107D300010B50400034B0833036001F02DF9200057
:107D400010BDC04674B7010010B50400FFF7F0FF86
:107D500020000AF09BFC200010BD0000064B1A68B2
:107D600001321A601B68012B05D88023034A9B044B
:107D7000516C0B43536470470803002000480041D6
:107D800010B50100014808F07BFB10BD282300203E
:107D9000054B1B68022B05D88023044A9B04516CB9
:107DA0000B4353647047C04608030020004800415D
:107DB00070B504000E0015008021A02201F07CFEA9
:107DC000044BE662083323600023256320002374FC
:107DD00070BDC04674B70100104B10B5C36103629B
:107DE000802380221B040363D2030D4BC262D96F30
:107DF00004000A43DA67016BDA6F0A480A43DA675C
:107E000008F0E6FA084B094AE16A1A6000221A7182
:107E10005A71E26913688B43136010BD90440041AE
:107E200004440041282300201C1A002000366E0163
:107E300073B5174C2368002BFCD0164E164D52001C
:107E4000009200230A0028003168FFF74FFEFFF779
:107E5000F5FB23681148013B23600F2403782A783F
:107E6000A34322401343037080230D499B044A6CB3
:107E700013434B640B4B1C78FFF7F8FB3368A407E4
:107E8000DB68E40F336002D12800FFF7F7FC73BD15
:107E900008030020181A0020241A00203F4800413F
:107EA0000048004140480041026A016B13680B43DF
:107EB0001360C269C16A13688B4313607047026A1A
:107EC000016B13688B431360C269C16A13688B43EB
:107ED00013607047C269C16A13680B43136070472F
:107EE00070B505000E00094C094B200006CB08F0C8
:107EF00097FA2800FFF7E3FF3000FFF741FF280063
:107F0000FFF7E8FF200008F0A7FA70BD2823002043
:107F10001C1A00204B1E994110B52031FFF7E0FFDD
:107F200010BD000070B505000E00094C094B200083
:107F300006CB08F075FA2800FFF7B6FF3000FFF710
:107F40001FFF2800FFF7C6FF200008F085FA70BD6C
:107F5000282300201C1A0020F7B504000F001E0083
:107F60002A2108AB1D780192FFF7BAFF20000021FB
:107F7000FFF7D8FF39002000FFF7D4FF20000021D1
:107F8000FFF7D0FF31002000FFF7CCFF20002B21AE
:107F9000FFF7A6FF20000021FFF7C4FF0199200092
:107FA000FFF7C0FF20000021FFF7BCFF29002000E1
:107FB000FFF7B8FF2C212000FFF792FFF7BD00006C
:107FC0000023F0B50D0085B002AA1C49537113714E
:107FD0000600039A1A48029108F022FA2F786C1CC6
:107FE000013FFFB23000FF2F20D0FFF768FF20785D
:107FF000FFF7C6FEA51C63787F2430000193FFF7CE
:1080000053FF019B1C402C19A54204D02878FFF790
:10801000B7FE0135F8E76B461B792C005BB2002BED
:10802000DEDA2878013408F021FBD9E7FFF752FFA8
:10803000034808F011FA05B0F0BDC046001BB700B8
:1080400028230020F0B587B00400FFF7C5FE2B4BB6
:108050001B785B0603D42A492000FFF7B1FF2000FC
:108060002849FFF7ADFF20003621FFF739FF012631
:1080700020000024C021FFF755FF234D0A212800CE
:10808000FFF748FC28000221FFF768FC01212800C7
:10809000FFF76AFD2800FFF757FB23002100049437
:1080A0000394029401960094184A2800FFF77AFC82
:1080B0001822174F21003860038813430380134AA6
:1080C0002300049403940294019600942800FFF77F
:1080D00069FC1822786003880E49134303803A68CC
:1080E0000D4B28001A603200FFF710FC02220B49EA
:1080F0002800FFF70BFC07B0F0BDC0463804004075
:108100006CB7010003B70100241A002028180042B0
:108110000C1A00205D7D0000181A0020917D0000DF
:10812000F0B585B002AF3D8C94466E00320004007D
:1081300068460832D208D200821A954602AA7A60AE
:1081400000223B60B24206D03B68985A7B6840BA36
:1081500098520232F6E76346C9B2DAB2501C4B1E9F
:108160005B19C0B20090DBB22000FFF7F5FE0C4EA9
:108170000C4B300006CB08F053F92000FFF794FEBB
:108180002A0079682000FFF753FEFFF7C9FD2000A1
:10819000FFF7A0FE300008F05FF9BD46F7BDC0460E
:1081A000282300201C1A002073B5040000292ADBB4
:1081B0000C20235E8B4226DD002A24DB0E20235E6A
:1081C000934220DDD2B2C9B2501C4B1CC0B2DBB20C
:1081D00000902000FFF7C0FE0B4D0C4B280006CB93
:1081E00008F01EF92000FFF75FFE094E3088000AF4
:1081F000FFF7C6FD3078FFF7C3FD2000FFF76AFEEA
:10820000280008F029F973BD282300201C1A00203B
:10821000401A0020F0B505001C000C202B5E85B034
:108220008B4231DD0E202B5E93422DDD10199842DA
:1082300001DD9C1A24B2D2B2531E1B19C9B2DBB2A3
:10824000009328000B00FFF787FE104B104E1B8891
:1082500030001F0ADBB203930E4B06CB08F0E0F8A8
:108260002800FFF721FE013C24B2631C06D0380031
:10827000FFF786FD0398FFF783FDF4E72800FFF77B
:1082800029FE300008F0E8F805B0F0BD401A0020E3
:10829000282300201C1A0020F0B585B01F000AAB6F
:1082A000050000241C5F0C23C05E88423EDD0E26C4
:1082B000AB5F93423ADDCE19864201DD471A3FB2E9
:1082C0001019984201DD9C1A24B2D2B2C9B2501ED4
:1082D0004B1E0019C0B2DB19DBB200902800FFF77B
:1082E0003BFE134B13481B881A0ADBB20393124B55
:1082F000029206CB08F094F82800FFF7D5FD002C79
:108300000EDD3E00002E08DD0298FFF739FD013E2C
:108310000398FFF735FD36B2F4E7013C24B2EEE7EF
:108320002800FFF7D7FD034808F096F805B0F0BD28
:10833000401A0020282300201C1A0020F0B5050058
:108340001C000C202B5E85B08B4230DD0E26A85F12
:1083500090422CDD0819984201DD5C1A24B2C9B2A2
:108360004B1ED2B21B19DBB200922800FFF7F4FDBE
:10837000104B114E1B8830001F0ADBB203930F4BCA
:1083800006CB08F04DF82800FFF78EFD013C24B223
:10839000631C06D03800FFF7F3FC0398FFF7F0FCEE
:1083A000F4E72800FFF796FD300008F055F805B017
:1083B000F0BDC046401A0020282300201C1A0020CF
:1083C0005343F0B503251C00DB172B401B19164C3B
:1083D0000F26256800249B105B0092B29208C918F2
:1083E000A3B29A421FD96300CB5A01341F11374000
:1083F0007F007F5B7FBA078047801F0037407F0088
:108400007F5B7FBA8780C7801F0B1B1233407F00C2
:108410005B007F5B5B5B7FBA5BBA078147818381CF
:10842000C3811030DCE7F0BD0C03002070B5040000
:108430000D003621FFF754FD6574032D0AD828007E
:108440000AF020FA02091017C0212000FFF76AFD88
:108450000B4BE36070BDA0212000FFF763FD094BCB
:10846000E360F7E700212000FFF75CFD044BE360C9
:10847000F0E760212000FFF755FD024BE360E9E7DC
:108480008000A000A0008000407C704710B5054827
:10849000FFF702F9044B054A1A6000225A711A715B
:1084A00010BDC046241A00201C1A002000093D00FF
:1084B000F0B51E008DB002AF040018003A620D0046
:1084C00002F0B4F90C22B35E002B00D197E00E212C
:1084D000725EBA61002A00D191E0B27A012A00D01E
:1084E00090E00C21625E7A629A4200D08AE00E220D
:1084F000A35EBA69934200D084E06B466A46BB60D3
:108500007B6A00255B000833DB08DB00D21A954646
:1085100002AA3A626A46D31A9D46BA6902AB013A88
:10852000D2B27B617B6A00920022013BDBB2110078
:108530002000FFF711FD374B374806CB07F070FFDF
:108540002000FFF7B1FCBB8C3B619B08FB60BB6963
:108550009D424ADA032100207A6A6A43D3170B400E
:108560009B182E4A9B10126831695B009446CB1809
:108570003A6A7B60F96883B2994226D979684300E8
:10858000CB5A0130FB6119110F2319406346490092
:10859000C95AFB6949BA11800F2119406346490045
:1085A000C95AFB6949BA5180190B63464900C95A37
:1085B000FB6949BA91800F211B120B4061465B0099
:1085C0005B5A5BBAD3800832D4E73A69396A200033
:1085D000FFF72EFC124A1368012BFCD93B6A7A691B
:1085E0000135ADB23A627B61B1E7FFF799FB20003C
:1085F000FFF770FC084807F02FFFBB689D46BD469B
:108600000BB0F0BD33003A6A2900200000F0F0FD05
:10861000F5E7C0461C1A0020282300200C03002088
:1086200008030020F0B504008BB002AF7A60FB6154
:108630003823FE5E3C22BB5EF8697B61B96002F0C4
:10864000F5F80C22A35EBA68934230DBF11772187A
:108650004A40B968CA422AD40E22A15E7A68914281
:1086600025DB7A69D017121842407868C2421ED4BE
:10867000002E1CD07A69002A19D0FA690C20125EEB
:10868000BA61002A13D0FA690E20125E3A61002AFC
:108690000DD0BA6996420DD17A693869824209D102
:1086A00023687A685D6BB968FB692000A847BD46FE
:1086B00009B0F0BDBA695200964200D08CE03A6928
:1086C00078695200904200D086E0B34200D083E047
:1086D000814200D080E06A4668463A60BA69013952
:1086E00092000832D208D200801A8546821A02AD62
:1086F000954602AAFA600022C9B2013BDBB20091A2
:1087000020001100FFF728FC384B394806CB07F052
:1087100087FE2000FFF7C8FBFB699B7A002B38D14E
:108720001E003B69B34229DD0023B86970437861BC
:10873000BA699A420EDD7A69F8699A18006952009E
:10874000125A990052BAB8600133681842809BB23D
:108750006A52EDE7A28929002000FFF769FBA28990
:1087600029002000FFF764FB224A1368002BFCD08D
:108770002B000136FD68B6B2FB60D2E7FFF7D0FAF6
:108780002000FFF7A7FB1A4807F066FE3B689D46EE
:108790008DE7012B1ED100263B69B342EEDDF9695E
:1087A0003300BA6909692800FFF70AFEA289290087
:1087B0002000FFF73DFBA28929002000FFF738FBCE
:1087C0000C4A1368002BFCD02B000136FD68B6B2B2
:1087D000FB60E1E73B689D467B6900960193FB697E
:1087E0007A68B968200000F0A1F960E71C1A00203F
:1087F0002823002008030020F7B5150004000E0010
:10880000009308AB00229B5E2A00019303681F6A55
:10881000009BB847019B31005A1E236852191F6AFA
:108820002000009B12B2B84723682A003100DF699C
:108830002000019BB8470099236801398919DF6935
:108840002A0009B2019B2000B847F7BD13B5002BE1
:1088500004DA0132D2185B4212B21BB2D318013BC8
:1088600004681BB20093A4690B00A04713BD13B5A5
:10887000002B04DA0131C9185B4209B21BB2CB18D4
:1088800004680092013B1BB2A469A04713BDF0B578
:1088900005000E000C0085B002930AAB0192002285
:1088A0009B5E0393029BF3189C4209DA2B6821001C
:1088B000DF69019A039B28000134B84724B2F1E72D
:1088C00005B0F0BD13B50E24015F0C22835E026873
:1088D0000091946A00221100A04713BDF0B58FB03B
:1088E0001C0014AB1B7806005BB20A91049208933B
:1088F000012B03D103681D6C2300A84723786278FD
:1089000020200C92DA1DD20809920722134001326E
:10891000D21AD2B20D926A4612181278A11C534391
:10892000DBB20B93002305920693069B0C9A9342AD
:1089300045D000270A9C0291099B02999F4233D29D
:108940000B78013707930023FFB20393099BBB42C7
:108950000AD10D9B039A934206D10B9B1C1964B25A
:10896000029B01330293E7E76B461B7F5BB2002B50
:108970000CDA6B4620229B5E6A4630681021525EFC
:108980000093806A21B205003000A847079B039D31
:108990005B00DBB20793059B01351C19EBB264B297
:1089A0000393082BD2D1DBE7059A049B9446069FDC
:1089B00063445BB201370493FBB20693B5E70FB093
:1089C000F0BD0000F7B5514A0B001268002A4BD1E8
:1089D0000A2918D14E4B4F491B7809784E4C4B430E
:1089E0004E4D21882D78591809B22180002D05D0CF
:1089F0005B180E21415E8B4200DB22800022484B37
:108A00001A800120FEBD0D29FBD041490E78434953
:108A10000C78002C15D0424F424C00217D5E24780A
:108A2000AC4674430C21455E6444AC4209DD3A8097
:108A3000384A3949127800240C5F724336491219BA
:108A40000A80374C344A07680021525E0025615F76
:108A50000096FE6CB0472E4B324A1B781278534377
:108A600022889B182380CCE70A290BD100212C4BAC
:108A7000927A1980264B28491B7853430A889B1801
:108A80000B80BEE70D29BCD0147AA142B9D3517A2C
:108A90009942B6D31C1BE4B25168E4006418A7786D
:108AA0001F4D002F2AD0E178002927D018490978D6
:108AB0008C461A490978002916D005216156C91932
:108AC000674679430026AF5FC9190C26875FB94214
:108AD0000ADB1149927A00268F5F3E0000272F8023
:108AE00067467A4392190A800B4A07680021525E52
:108AF0000026A95F66460096FF6CB847044A2379B2
:108B0000127853432A889B182B807AE74C1A00204E
:108B1000501A0020381A0020481A002013030020A1
:108B2000461A0020521A002070470000F0B51C00C1
:108B300078239BB002AFFB187A6500229B5E06008B
:108B4000FB637C23FB1800229B5E2000BB63B9659E
:108B500001F06CFE0C23F25EBB6D9A4230DBFB6BC6
:108B6000D9175818BB6D4840C34229D40E21735EF3
:108B7000796D9C468B4223DBB96BCD17491969404F
:108B80007D6DCD421CD4FD6B002D19D0BD6B002D29
:108B900016D00C23E55EFD650E23E55E3D64FD6B9E
:108BA0002B00FD6DAB420ED1BD6B2B003D6CAB427B
:108BB00009D133687A6D5D6BB96D23003000A84729
:108BC000BD4619B0F0BD05B27D640DB2FD62BD6D4C
:108BD000002D00DB83E05823FB181A885542121839
:108BE0002DB212B23D65BA647A6D002A00DB86E0D0
:108BF0005423FB181B885A425B1812B21BB2FA644A
:108C00003B63B27A002A00D0C2E06B466A46FB6042
:108C10007B6C5B000833DB08DB00D31A9D4602AB9C
:108C2000BB622389BB60A37A012B08D1627A002A38
:108C300076D0A34A237A12685B009B5A2381FB6D8E
:108C40005A1CD30F9B185B10FB61FA6D3B6D5343AD
:108C50003B6100237B637B6B3A6B934200DB92E0CA
:108C6000FA6CF96A98183B6C584309F0A9FEBB6B83
:108C700080B2002B03DA3B6C013B181A80B200254E
:108C8000FB694343BB618E4B1B687B61FB6D4343B8
:108C90003B623B697B62FB6D013B7B60BA6C2BB234
:108CA0009A4254DD796C786A09F08AFEFB6B80B2D7
:108CB000002B02DA7B68181A80B2A27A002A31D11E
:108CC0003B6AB96AC01823694000C25A6B00CA5295
:108CD000FA6D7B6A9446634401357B62DEE7786C0B
:108CE000BD6D4019904205DD521B12B2BA640022DC
:108CF0003A6579E77A6CBA6400223A6574E7FA6AF1
:108D0000796D5218624506DD63465B1A1BB23B6300
:108D10000023FB6475E7FB6A3B630023FB6470E799
:108D200023818CE7012AD3D143089C46B969236982
:108D30005B1861465B5C104200D11B090F210B40A0
:108D400079695B005B5AB96A6A008B52C0E74820B8
:108D5000BB8EFA6C7B637B6D396D9A187B6B381810
:108D60009A18BB6D12B2591833680194008809B281
:108D700000905B6930001D00BB6AA8477D6B013520
:108D80002BB27B6367E73B892381FB689D4617E72E
:108D9000012A00D014E76B46FB60A37A002B00D1B8
:108DA0008AE069467B6CFA610833DB08DB00CB1A8A
:108DB0009D4602AB3B62FB6D591CCB0F5B185B10F1
:108DC0007B61F96D3B6D4B43BB6100237B637B6B28
:108DD0003A6B934270DAFA6CF96A98183B6C584314
:108DE00009F0EEFDBB6B80B2002B03DA3B6C013B5C
:108DF000181A80B27B693A6D43433B61BB69944664
:108E00007B620023BB62FB6D3D6A013BBB60BB6DB7
:108E100063447B602822BB5EBA6C9A4230DD796C79
:108E2000786A09F0CDFDFB6B80B2002B02DABB68DB
:108E3000181A80B22369396942085B189B5CFA6989
:108E4000104200D11B090F2079680340B86A2A78C4
:108E50000918F86901420DD00F20824313432B708B
:108E60000135FA6DBB6A94460133BB627B6A634489
:108E70007B62CFE70F211B010A4013432B70F0E701
:108E80004820BB8EFA6C7B637B6D396D9A187B6BC7
:108E900038189A18BB6D12B25918336801940088BB
:108EA00009B200905B6930001D003B6AA8477D6BEA
:108EB00001352BB27B638AE7FB689D4680E6C0469E
:108EC0000C030020F0B50F260127B44605AC4D1C5D
:108ED0005B0024780978C318984210D0002C09D080
:108EE000664631404900895A0180297801357C4025
:108EF0000230F1E70E117600B65A0680F7E7F0BDB2
:108F0000234BF0B51F68002387B05A00BA5ADEB26F
:108F1000824239D00133102BF7D10024C300DBB2D9
:108F20000725019303232600C2100012A8439A4389
:108F3000D2B203901748029204930595E3B29C467F
:108F40006300FA5A049BD1109943029BC9B2591A83
:108F5000CB17C918059D59401312AB43039DD2008E
:108F6000EB1ADD175B196B40CB18D1B2019A511A7D
:108F7000CA17891851405B189BB2834201D218006E
:108F800066460134102CD9D1300007B0F0BDC04680
:108F90000C030020FFFF0000704710B50368DB6A78
:108FA000984710BDF0B597B002AF3A636822BA187F
:108FB00079630021525E7864BA646C22BA18002189
:108FC000525EFA637022BA180021525E3A6474222B
:108FD000BA180021525EFA62BA6FFA64917A0129D6
:108FE00064D1827A002A00D08AE0FA6C12897A620F
:108FF000FA6C527A002A50D0FA6C7C49127A0968CD
:109000005200525AF96C0A81FA6B5C1C5200E30F51
:109010001B193A623A6C5B105A43BB63BB6CB96C68
:10902000DB0F5B185B10D3181E000024FB6AA34201
:1090300036DD6B466A46FB613B6ABD8F0833DB0851
:10904000DB00D31A9D46012202ABBB62FB6C1B699D
:109050009919BB6C1340654A009312682B00B86ADB
:10906000FFF730FF3B6B3A6C796B9A18BB6CF86C6E
:1090700059187B6C12191B680190009512B25D693A
:1090800009B2BB6A786CA847FB69BA6B9D469446E7
:109090003300634401341E00C8E7FA6C1181B3E762
:1090A000BB8CFA6C1381BD4615B0F0BD0029FAD116
:1090B0007A6C957A002DF6D13C6C5A005C43BB6CFF
:1090C000BA63E4186400FB6AAB42ECDD396C3A6BBE
:1090D000B86C5218796BFB6CFE6C0918786C1B69C4
:1090E00000680196BE8F5219009640691B19060050
:1090F00012B209B2786CB047BB6B0135E418E2E7F5
:10910000012AD0D10133DC0FE3185B107B61BB6C0B
:10911000B96CDB0F5B185B100131BB62CB0F5B18C6
:109120005B103B61FB6B3D6C591CCB0F5B185B10FC
:109130003B620133FB607B697A605D43BB6AED187B
:109140000023BB63FB6ABA6B9342ACDDBB6CB88E89
:109150003A6CC1180BB2BB61BB8F796CFB613B6B86
:1091600009689A18BB6B8C46D2187968FB6C12B2EE
:109170001B6908422FD06946B86AB9603969091A73
:10918000684649195918FB680733DB08DB00C31A26
:109190009D46481E0478002002AB3E6AB04209DCBE
:1091A0000E5C24017E62361134431C540130C0B27F
:1091B0007C6AF2E7F96C0191F96900916146786C7B
:1091C0004C69B969A047BB689D46BB6B0133BB6363
:1091D0007B69ED18B6E7F96C5B190191F9690091AB
:1091E0006146786C4C69B969A047EEE70C03002032
:1091F000F0B58BB00890180015001E000C0001F0AF
:1092000015FB089B0C229A5EA24238DB0C23F15E10
:109210000691671833D408990E23C85EA8422EDB46
:109220000E23F15E2B005B18099328D4002C28DA5A
:10923000A7B27B421BB20793069BFF18BC463FB206
:10924000974200DD944663461AB2002D24DAAFB28D
:109250007B427F181BB2391C3FB29C46874200DD1F
:10926000011C09B263460293079B0391019200938C
:109270000496069B2A0021000898FFF793FE0BB086
:10928000F0BD974204DD0023121B12B20793DCE706
:109290000023069A0793D8E700239C46099B834244
:1092A000E0DD411BDDE7F0B58DB0099312AB07920D
:1092B00000229B5E05000A9313AB00229B5E099877
:1092C0000B9314AB00269E5F15AB0C000027DF5FED
:1092D00001F0ACFA002E28D0099B0C229B5E08936B
:1092E000002B22D00C22AB5E9C46A3421DDB089BC8
:1092F000DC421AD40E23E85E079B984215DB099BDB
:109300000E229B5E079ADA420FD40A9A0B990A43FF
:109310000DD1089AB2420AD1BB4208D12B68079AF4
:109320005E6B2100099B2800B0470DB0F0BD089A84
:109330000A99521AB24200DD32000B995B1ABB4205
:1093400000DD3B0069460E8DA1B2002C2ADA8A1896
:10935000741A24B2171C12B20A94624500DD6746E3
:109360003FB26A46891B079E948D09B2928B002EEC
:109370001FDAA61A36B2D3180B961E1C1BB28342F4
:1093800000DD061C33B203930B9B099802930A9BE2
:10939000121B0490009312B20197089B2800FFF75C
:1093A00001FEC2E717B23C196445DADD6246571A7E
:1093B000D6E7079E1BB29E198642E4DD831A1BB2D4
:1093C000E1E70000014B18787047C046381A0020CA
:1093D000002900D10131014B19707047501A00204B
:1093E00010B503681B69984710BDF0B515000C0057
:1093F0001F0087B00CAB00229B5E04905A1BD11754
:1094000052184A4000923A1BD11752184A40019212
:109410000199009A8A4205DD3A001F0013002200DC
:109420002C001500BC4205DD2A001D00130022009F
:109430003C0017003A1B92B202925A1BD1175218E5
:109440004A4005926A460821525ED60FB61801229C
:10945000761003929D4202DB01235B420393BC42E0
:109460001DDC009B019A934213DD22002900049821
:10947000FFF7B6FF059BF61AB3B21EB2002E05DA4F
:10948000039AAD18029A2DB2D3181EB2013424B239
:10949000E5E72A0021000498FFF7A2FFEAE707B0FA
:1094A000F0BDF0B515001A788BB00890D01DC0083B
:1094B0000490072002400392082209910398991C06
:1094C0005B78121A5B19D2B25BB205920793079BC5
:1094D0009D4237D00023099C02910193019B049A7D
:1094E000029993422BD2019BE6B20133DBB2019386
:1094F0000836E3B20F78069376B2049B019A934242
:109500000ED1069AE3B29A1A0599D2B2914207D1C6
:10951000039AD3185EB2029B340001330293DDE755
:109520007BB2002B04DA2AB221B20898FFF758FF69
:1095300001347F0064B2FFB2A642DED1EBE7013511
:109540006DB2C4E70BB0F0BDF0B58BB006920293DC
:1095500011AA10AB12781B780392070005911A43E9
:1095600006D10368069A1C6C029BA0470BB0F0BDA5
:10957000029A0025167852780192F21DD2100792B5
:10958000032213400493AE42F0DD0722EB17134091
:109590005B19DB1009932A4B2B4003D5013B0F3A93
:1095A0001343013380225BB21A4100240892019BCD
:1095B000E9B29C4241DA099A029B9B18079A6243DE
:1095C0009B189B78089A1A4223D0049B022B23D025
:1095D000032B29D0012B2DD1721E521A210052B219
:1095E000039B002B0CD00120034202D0731E591A9A
:1095F00049B20220039B034202D0019B9A1A52B245
:10960000059B3800C918069B49B2D21852B2FFF721
:10961000E7FE013464B2CAE7019B721E511A5A1E5A
:10962000121B49B252B2DBE7019B2A00591E091BEB
:1096300049B2D5E722002900D2E701314DB2A2E7B5
:1096400007000080F0B595B01D001AAB1F789B4B4A
:1096500004001B6807910592002B00D0A5E00C22A6
:10966000835E8B4200DC26E10E22835E059A9342E4
:1096700000DC20E1924B1B787B435B18002B00DC65
:1096800019E1904B059A1B787B439B18002B00DC5B
:1096900011E18D4B1B78002B03D1AF2D01D9013582
:1096A000EDB26BB2002B01DA203DEDB20023039343
:1096B000834B039A1B789A4200DBFCE0002206925F
:1096C000039A013B9A4206D0804A6B431268039981
:1096D0005218D35C06936B469B89BAB20893BBB20F
:1096E0000B936B469B8B0993089B5343099AD318A2
:1096F0001BB20C9300230493724B049A1B789A427A
:109700004EDA0122069B134222D06B46198A9A8AAE
:10971000012F10D15218089B099912B2591809B299
:109720002000FFF75DFE069B5B080693049B013358
:109730005BB20493E0E70B983BB2414352182168B7
:109740000093896A12B20E0020000C99B047EAE734
:109750005F4B1A885F4B19880A918A42E3D01A80BE
:109760006B46198A9A8A012F0DD15218089B0999C4
:1097700012B2591809B22000FFF732FE6A46554B63
:10978000128D1A80CFE70B983BB2414352182168E3
:109790000093896A12B20E0020000C99B047EDE7E1
:1097A000039E013673B2039382E71A7AAD1AEDB2C3
:1097B0005A68ED001B68AD1811932B880493AB78A1
:1097C0000C93EB7812930523EB560D930623EB567F
:1097D0000E93012F06D96B4634269E5F6B463822C6
:1097E0009B5E1093BBB20A936B469B8B0993BBB2F3
:1097F0005E43099B9E19B3B2139300231D00079388
:10980000129B9D4257D26B469B8A0A9A0B93109BE0
:10981000EB1853430B9AD3181BB20F93139B089367
:10982000002303936B461A7B079B0C99D318DBB27A
:109830008A4237D20722134207D1049B0499119A16
:109840000133525C9BB206920493069B1B060FD514
:10985000012F1BD10B9B0E9A0D999A18099B521937
:109860005918039B12B2C91809B22000FFF7B8FDBE
:109870000A9A069B94465B00DBB20693039B013376
:109880000393089B63449BB20893CBE76A463BB2C1
:109890002021515E22680093926A200016000F9AE0
:1098A000B047E5E70C9A079B94466344DBB2013569
:1098B0000793EDB2A4E715B0F0BDC0464C1A0020E6
:1098C000521A0020381A0020421A00203C1A0020A8
:1098D000441A0020401A002010B5837A012B07D1CA
:1098E0000F22074B1140188859700901197010BDDB
:1098F000044B49001B68C95A00F014F8F7E7C0464A
:10990000401A00200C03002070B50400FFF7E4FFAC
:1099100005002000FFF741FB014B1D8070BDC046D4
:10992000401A002010B5837A0400012B07D10800EB
:10993000FFF7E6FA01002000FFF7CEFF10BD024B53
:1099400018881980FAE7C046401A002070B5040054
:10995000FFF7E8FF05002000FFF71FFB014B1D800C
:1099600070BDC046401A0020F8B50E00190017005F
:109970000400FFF7D7FF05003A0031002000FFF791
:109980002FFD014B1D80F8BD401A0020837A10B5D1
:10999000012B09D10E331940074B59700901197079
:1099A0001A88064B1A8010BD054B49001B68C95A1E
:1099B00000F008F8F7E7C046401A0020441A0020DB
:1099C0000C03002010B5837A0400012B07D1080096
:1099D000FFF796FA01002000FFF7D8FF10BD024BF9
:1099E0001980024B1980F9E7441A0020401A002020
:1099F00010B5837A012B0BD10E3319401A40094858
:109A0000094B41705A700901120101701A7010BDA2
:109A1000064B52001B684900D25AC95A00F008F898
:109A2000F5E7C046401A0020441A00200C0300202D
:109A300070B5837A05001400012B0CD10800FFF7E4
:109A40005FFA06002000FFF75BFA310002002800F1
:109A5000FFF7CEFF70BD024B1980024B1A80F9E769
:109A6000401A0020441A0020024B1880024B198033
:109A70007047C046461A0020481A0020014B197052
:109A80007047C04613030020074A084811600B784E
:109A9000013303704B780231116001220448013315
:109AA0000370044B1A7070473C1A0020521A0020B1
:109AB000381A0020421A002070B500250126040043
:109AC0000D4B4560083303600C4BC2811D800C4B6D
:109AD00081811D800B4B0C491E70FFF773FF0B4BF0
